{
  "contractName": "ArtistMembers",
  "abi": [
    {
      "inputs": [],
      "stateMutability": "nonpayable",
      "type": "constructor"
    },
    {
      "anonymous": false,
      "inputs": [
        {
          "indexed": true,
          "internalType": "address",
          "name": "artistAddress",
          "type": "address"
        }
      ],
      "name": "ArtistAdd",
      "type": "event"
    },
    {
      "anonymous": false,
      "inputs": [
        {
          "indexed": true,
          "internalType": "address",
          "name": "previousOwner",
          "type": "address"
        },
        {
          "indexed": true,
          "internalType": "address",
          "name": "newOwner",
          "type": "address"
        }
      ],
      "name": "OwnershipTransferred",
      "type": "event"
    },
    {
      "inputs": [],
      "name": "owner",
      "outputs": [
        {
          "internalType": "address",
          "name": "",
          "type": "address"
        }
      ],
      "stateMutability": "view",
      "type": "function",
      "constant": true
    },
    {
      "inputs": [],
      "name": "renounceOwnership",
      "outputs": [],
      "stateMutability": "nonpayable",
      "type": "function"
    },
    {
      "inputs": [
        {
          "internalType": "address",
          "name": "newOwner",
          "type": "address"
        }
      ],
      "name": "transferOwnership",
      "outputs": [],
      "stateMutability": "nonpayable",
      "type": "function"
    },
    {
      "inputs": [
        {
          "internalType": "address",
          "name": "_address",
          "type": "address"
        },
        {
          "internalType": "string",
          "name": "_name",
          "type": "string"
        },
        {
          "internalType": "string",
          "name": "_iconURL",
          "type": "string"
        }
      ],
      "name": "addArtist",
      "outputs": [
        {
          "components": [
            {
              "internalType": "uint256",
              "name": "id",
              "type": "uint256"
            },
            {
              "internalType": "address",
              "name": "artistAddress",
              "type": "address"
            },
            {
              "internalType": "string",
              "name": "name",
              "type": "string"
            },
            {
              "internalType": "string",
              "name": "iconURL",
              "type": "string"
            }
          ],
          "internalType": "struct SLib.Artist",
          "name": "artist",
          "type": "tuple"
        }
      ],
      "stateMutability": "nonpayable",
      "type": "function"
    },
    {
      "inputs": [
        {
          "internalType": "address",
          "name": "_address",
          "type": "address"
        }
      ],
      "name": "checkIsArtistExist",
      "outputs": [
        {
          "internalType": "bool",
          "name": "",
          "type": "bool"
        }
      ],
      "stateMutability": "view",
      "type": "function",
      "constant": true
    },
    {
      "inputs": [],
      "name": "getArtistSize",
      "outputs": [
        {
          "internalType": "uint256",
          "name": "",
          "type": "uint256"
        }
      ],
      "stateMutability": "view",
      "type": "function",
      "constant": true
    },
    {
      "inputs": [
        {
          "internalType": "uint256",
          "name": "id",
          "type": "uint256"
        }
      ],
      "name": "getArtistById",
      "outputs": [
        {
          "components": [
            {
              "internalType": "uint256",
              "name": "id",
              "type": "uint256"
            },
            {
              "internalType": "address",
              "name": "artistAddress",
              "type": "address"
            },
            {
              "internalType": "string",
              "name": "name",
              "type": "string"
            },
            {
              "internalType": "string",
              "name": "iconURL",
              "type": "string"
            }
          ],
          "internalType": "struct SLib.Artist",
          "name": "artist",
          "type": "tuple"
        }
      ],
      "stateMutability": "view",
      "type": "function",
      "constant": true
    },
    {
      "inputs": [
        {
          "internalType": "address",
          "name": "_address",
          "type": "address"
        }
      ],
      "name": "getArtistByAddress",
      "outputs": [
        {
          "components": [
            {
              "internalType": "uint256",
              "name": "id",
              "type": "uint256"
            },
            {
              "internalType": "address",
              "name": "artistAddress",
              "type": "address"
            },
            {
              "internalType": "string",
              "name": "name",
              "type": "string"
            },
            {
              "internalType": "string",
              "name": "iconURL",
              "type": "string"
            }
          ],
          "internalType": "struct SLib.Artist",
          "name": "artist",
          "type": "tuple"
        }
      ],
      "stateMutability": "view",
      "type": "function",
      "constant": true
    }
  ],
  "bytecode": "0x608060405234801561001057600080fd5b5061002d61002261003a60201b60201c565b61004260201b60201c565b6000600481905550610106565b600033905090565b60008060009054906101000a900473ffffffffffffffffffffffffffffffffffffffff169050816000806101000a81548173ffffffffffffffffffffffffffffffffffffffff021916908373ffffffffffffffffffffffffffffffffffffffff1602179055508173ffffffffffffffffffffffffffffffffffffffff168173ffffffffffffffffffffffffffffffffffffffff167f8be0079c531659141344cd1fd0a4f28419497f9722a3daafe3b4186f6b6457e060405160405180910390a35050565b61147c806101156000396000f3fe608060405234801561001057600080fd5b50600436106100885760003560e01c80638da5cb5b1161005b5780638da5cb5b14610127578063aa316fad14610145578063ed9b8e7d14610175578063f2fde38b1461019357610088565b806341b65e7e1461008d578063529b06d0146100bd578063715018a6146100ed578063827df9e2146100f7575b600080fd5b6100a760048036038101906100a29190610dc0565b6101af565b6040516100b4919061101d565b60405180910390f35b6100d760048036038101906100d29190610d35565b6103ce565b6040516100e4919061101d565b60405180910390f35b6100f5610625565b005b610111600480360381019061010c9190610d08565b6106ad565b60405161011e919061101d565b60405180910390f35b61012f610940565b60405161013c9190610f67565b60405180910390f35b61015f600480360381019061015a9190610d08565b610969565b60405161016c9190610f82565b60405180910390f35b61017d6109bf565b60405161018a919061103f565b60405180910390f35b6101ad60048036038101906101a89190610d08565b6109c9565b005b6101b7610b8d565b816000811180156101ca57506004548111155b610209576040517f08c379a000000000000000000000000000000000000000000000000000000000815260040161020090610fbd565b60405180910390fd5b600360018461021891906110dd565b81548110610229576102286112a5565b5b9060005260206000209060040201604051806080016040529081600082015481526020016001820160009054906101000a900473ffffffffffffffffffffffffffffffffffffffff1673ffffffffffffffffffffffffffffffffffffffff1673ffffffffffffffffffffffffffffffffffffffff1681526020016002820180546102b29061119b565b80601f01602080910402602001604051908101604052809291908181526020018280546102de9061119b565b801561032b5780601f106103005761010080835404028352916020019161032b565b820191906000526020600020905b81548152906001019060200180831161030e57829003601f168201915b505050505081526020016003820180546103449061119b565b80601f01602080910402602001604051908101604052809291908181526020018280546103709061119b565b80156103bd5780601f10610392576101008083540402835291602001916103bd565b820191906000526020600020905b8154815290600101906020018083116103a057829003601f168201915b505050505081525050915050919050565b6103d6610b8d565b600160008573ffffffffffffffffffffffffffffffffffffffff1673ffffffffffffffffffffffffffffffffffffffff16815260200190815260200160002060009054906101000a900460ff1615610463576040517f08c379a000000000000000000000000000000000000000000000000000000000815260040161045a90610ffd565b60405180910390fd5b60046000815480929190610476906111fe565b919050555060018060008673ffffffffffffffffffffffffffffffffffffffff1673ffffffffffffffffffffffffffffffffffffffff16815260200190815260200160002060006101000a81548160ff0219169083151502179055506000604051806080016040528060045481526020018673ffffffffffffffffffffffffffffffffffffffff16815260200185815260200184815250905060038190806001815401808255809150506001900390600052602060002090600402016000909190919091506000820151816000015560208201518160010160006101000a81548173ffffffffffffffffffffffffffffffffffffffff021916908373ffffffffffffffffffffffffffffffffffffffff16021790555060408201518160020190805190602001906105a8929190610bcb565b5060608201518160030190805190602001906105c5929190610bcb565b50505060016004546105d791906110dd565b600260008773ffffffffffffffffffffffffffffffffffffffff1673ffffffffffffffffffffffffffffffffffffffff16815260200190815260200160002081905550809150509392505050565b61062d610ac1565b73ffffffffffffffffffffffffffffffffffffffff1661064b610940565b73ffffffffffffffffffffffffffffffffffffffff16146106a1576040517f08c379a000000000000000000000000000000000000000000000000000000000815260040161069890610fdd565b60405180910390fd5b6106ab6000610ac9565b565b6106b5610b8d565b81600160008273ffffffffffffffffffffffffffffffffffffffff1673ffffffffffffffffffffffffffffffffffffffff16815260200190815260200160002060009054906101000a900460ff16610742576040517f08c379a000000000000000000000000000000000000000000000000000000000815260040161073990610fbd565b60405180910390fd5b6000600260008573ffffffffffffffffffffffffffffffffffffffff1673ffffffffffffffffffffffffffffffffffffffff1681526020019081526020016000205490506003818154811061079a576107996112a5565b5b9060005260206000209060040201604051806080016040529081600082015481526020016001820160009054906101000a900473ffffffffffffffffffffffffffffffffffffffff1673ffffffffffffffffffffffffffffffffffffffff1673ffffffffffffffffffffffffffffffffffffffff1681526020016002820180546108239061119b565b80601f016020809104026020016040519081016040528092919081815260200182805461084f9061119b565b801561089c5780601f106108715761010080835404028352916020019161089c565b820191906000526020600020905b81548152906001019060200180831161087f57829003601f168201915b505050505081526020016003820180546108b59061119b565b80601f01602080910402602001604051908101604052809291908181526020018280546108e19061119b565b801561092e5780601f106109035761010080835404028352916020019161092e565b820191906000526020600020905b81548152906001019060200180831161091157829003601f168201915b50505050508152505092505050919050565b60008060009054906101000a900473ffffffffffffffffffffffffffffffffffffffff16905090565b6000600160008373ffffffffffffffffffffffffffffffffffffffff1673ffffffffffffffffffffffffffffffffffffffff16815260200190815260200160002060009054906101000a900460ff169050919050565b6000600454905090565b6109d1610ac1565b73ffffffffffffffffffffffffffffffffffffffff166109ef610940565b73ffffffffffffffffffffffffffffffffffffffff1614610a45576040517f08c379a0000000000000000000000000000000000000000000000000000000008152600401610a3c90610fdd565b60405180910390fd5b600073ffffffffffffffffffffffffffffffffffffffff168173ffffffffffffffffffffffffffffffffffffffff161415610ab5576040517f08c379a0000000000000000000000000000000000000000000000000000000008152600401610aac90610f9d565b60405180910390fd5b610abe81610ac9565b50565b600033905090565b60008060009054906101000a900473ffffffffffffffffffffffffffffffffffffffff169050816000806101000a81548173ffffffffffffffffffffffffffffffffffffffff021916908373ffffffffffffffffffffffffffffffffffffffff1602179055508173ffffffffffffffffffffffffffffffffffffffff168173ffffffffffffffffffffffffffffffffffffffff167f8be0079c531659141344cd1fd0a4f28419497f9722a3daafe3b4186f6b6457e060405160405180910390a35050565b604051806080016040528060008152602001600073ffffffffffffffffffffffffffffffffffffffff16815260200160608152602001606081525090565b828054610bd79061119b565b90600052602060002090601f016020900481019282610bf95760008555610c40565b82601f10610c1257805160ff1916838001178555610c40565b82800160010185558215610c40579182015b82811115610c3f578251825591602001919060010190610c24565b5b509050610c4d9190610c51565b5090565b5b80821115610c6a576000816000905550600101610c52565b5090565b6000610c81610c7c8461107f565b61105a565b905082815260208101848484011115610c9d57610c9c611308565b5b610ca8848285611159565b509392505050565b600081359050610cbf81611418565b92915050565b600082601f830112610cda57610cd9611303565b5b8135610cea848260208601610c6e565b91505092915050565b600081359050610d028161142f565b92915050565b600060208284031215610d1e57610d1d611312565b5b6000610d2c84828501610cb0565b91505092915050565b600080600060608486031215610d4e57610d4d611312565b5b6000610d5c86828701610cb0565b935050602084013567ffffffffffffffff811115610d7d57610d7c61130d565b5b610d8986828701610cc5565b925050604084013567ffffffffffffffff811115610daa57610da961130d565b5b610db686828701610cc5565b9150509250925092565b600060208284031215610dd657610dd5611312565b5b6000610de484828501610cf3565b91505092915050565b610df681611111565b82525050565b610e0581611111565b82525050565b610e1481611123565b82525050565b6000610e25826110b0565b610e2f81856110bb565b9350610e3f818560208601611168565b610e4881611317565b840191505092915050565b6000610e606026836110cc565b9150610e6b82611328565b604082019050919050565b6000610e836024836110cc565b9150610e8e82611377565b604082019050919050565b6000610ea66020836110cc565b9150610eb1826113c6565b602082019050919050565b6000610ec96018836110cc565b9150610ed4826113ef565b602082019050919050565b6000608083016000830151610ef76000860182610f49565b506020830151610f0a6020860182610ded565b5060408301518482036040860152610f228282610e1a565b91505060608301518482036060860152610f3c8282610e1a565b9150508091505092915050565b610f528161114f565b82525050565b610f618161114f565b82525050565b6000602082019050610f7c6000830184610dfc565b92915050565b6000602082019050610f976000830184610e0b565b92915050565b60006020820190508181036000830152610fb681610e53565b9050919050565b60006020820190508181036000830152610fd681610e76565b9050919050565b60006020820190508181036000830152610ff681610e99565b9050919050565b6000602082019050818103600083015261101681610ebc565b9050919050565b600060208201905081810360008301526110378184610edf565b905092915050565b60006020820190506110546000830184610f58565b92915050565b6000611064611075565b905061107082826111cd565b919050565b6000604051905090565b600067ffffffffffffffff82111561109a576110996112d4565b5b6110a382611317565b9050602081019050919050565b600081519050919050565b600082825260208201905092915050565b600082825260208201905092915050565b60006110e88261114f565b91506110f38361114f565b92508282101561110657611105611247565b5b828203905092915050565b600061111c8261112f565b9050919050565b60008115159050919050565b600073ffffffffffffffffffffffffffffffffffffffff82169050919050565b6000819050919050565b82818337600083830152505050565b60005b8381101561118657808201518184015260208101905061116b565b83811115611195576000848401525b50505050565b600060028204905060018216806111b357607f821691505b602082108114156111c7576111c6611276565b5b50919050565b6111d682611317565b810181811067ffffffffffffffff821117156111f5576111f46112d4565b5b80604052505050565b60006112098261114f565b91507fffffffffffffffffffffffffffffffffffffffffffffffffffffffffffffffff82141561123c5761123b611247565b5b600182019050919050565b7f4e487b7100000000000000000000000000000000000000000000000000000000600052601160045260246000fd5b7f4e487b7100000000000000000000000000000000000000000000000000000000600052602260045260246000fd5b7f4e487b7100000000000000000000000000000000000000000000000000000000600052603260045260246000fd5b7f4e487b7100000000000000000000000000000000000000000000000000000000600052604160045260246000fd5b600080fd5b600080fd5b600080fd5b600080fd5b6000601f19601f8301169050919050565b7f4f776e61626c653a206e6577206f776e657220697320746865207a65726f206160008201527f6464726573730000000000000000000000000000000000000000000000000000602082015250565b7f617274697374204964206d757374206c657373207468616e206172746973744360008201527f6f756e7400000000000000000000000000000000000000000000000000000000602082015250565b7f4f776e61626c653a2063616c6c6572206973206e6f7420746865206f776e6572600082015250565b7f43616c6c65722069732061727469737420616c72656164790000000000000000600082015250565b61142181611111565b811461142c57600080fd5b50565b6114388161114f565b811461144357600080fd5b5056fea2646970667358221220a9d1c76e77c2fd256cfc58e94bf3f02ee64f5f11a97d9c961851ccbfcd47ff6164736f6c63430008050033",
  "immutableReferences": {},
  "source": "// SPDX-License-Identifier: UNLICENSED\n\npragma solidity ^0.8.5;\nimport \"@openzeppelin/contracts/token/ERC20/ERC20.sol\";\nimport \"@openzeppelin/contracts/access/Ownable.sol\";\nimport \"./slib.sol\";\nimport \"./fundRasingShareToken.sol\";\nimport \"./platformToken.sol\";\n\ncontract ArtistMembers is Ownable{\n\n    mapping(address => bool) private artistExist; //check projectId return bool\n    mapping(address => uint) private artistIdIndex; //check projectId return bool\n    SLib.Artist[] private artistList;\n    uint private artistCount;\n\n    modifier isArtistIdExist(uint id) {\n        require(id > 0 && id <= artistCount, \"artist Id must less than artistCount\");\n        _;\n    }\n\n    modifier isArtistAddressExist(address _address) {\n        require(artistExist[_address], \"artist Id must less than artistCount\");\n        _;\n    }\n\n    event ArtistAdd(address indexed artistAddress);\n\n    constructor (){\n        artistCount = 0;\n    }\n\n    function addArtist (address _address, string memory _name, string memory _iconURL) external  returns (SLib.Artist memory artist){\n        require(!artistExist[_address], \"Caller is artist already\");\n        artistCount ++;\n        artistExist[_address] = true;\n        SLib.Artist memory newArtist = SLib.Artist({\n            id:artistCount,\n            artistAddress:_address,\n            name:_name,\n            iconURL:_iconURL\n        });\n        artistList.push(newArtist);\n        artistIdIndex[_address] = artistCount - 1;\n\n        // omit event\n\n        return newArtist;\n    }\n\n    function checkIsArtistExist(address _address) public view returns (bool) {\n        return artistExist[_address];\n    }\n\n    function getArtistSize() public view returns (uint) {\n        return artistCount;\n    }\n\n    function getArtistById(uint id) isArtistIdExist(id) public view returns (SLib.Artist memory artist){\n        return artistList[id - 1];\n    }\n\n    function getArtistByAddress(address _address) isArtistAddressExist(_address) public view returns (SLib.Artist memory artist){\n        uint artistIndex = artistIdIndex[_address];\n        return artistList[artistIndex];\n    }\n}\n\n\n\ncontract ArtProjects is Ownable{\n\n    mapping(uint => bool) private projectExist; //check projectId return bool\n    SLib.Project[] private projectList;\n    uint private projectCount = 0;\n    mapping(address => uint[]) artistProjectList;\n\n    // projectId -> investor address -> invest amount\n    mapping(uint => mapping(address => uint)) projectAddressFundAmount;\n    mapping(uint => address[] ) projectFunderList;\n    mapping(address => uint[]) investerFundedProjectList;\n    mapping(uint => mapping(address => bool)) projectShareNFTClaimed;\n\n    modifier isProjectIdExist(uint id) {\n        require(id > 0 && id <= projectCount, \"project Id must less than projectCount\");\n        _;\n    }\n\n    constructor(){\n\n    }\n\n    function addProject(address _artistAddress, string memory _name, string memory _description, uint _targetFundingAmount) external {\n        \n        projectCount ++;\n        SLib.Project memory newProject = SLib.Project({\n            id:projectCount,\n            artistAddress: _artistAddress,\n            name:_name,\n            description:_description,\n            targetFundingAmount:_targetFundingAmount,\n            currentFundingAmount: 0,\n            totalFunder:0,\n            isOpen:true,\n            dataURL:\"\"\n        });\n        projectList.push(newProject);\n        artistProjectList[_artistAddress].push(newProject.id);\n        projectExist[projectCount] = true;\n    }\n\n    function addFunderAmount(uint projectId, address _investorAddress, uint amount) isProjectIdExist(projectId) external {\n        SLib.Project storage project = projectList[projectId - 1];\n\n        // block if not open\n        require(project.isOpen, \"Project fund rasing is closed\") ;\n\n        project.currentFundingAmount += amount;\n\n        // add new investor record\n        if(projectAddressFundAmount[projectId][_investorAddress] == 0){\n            // if no invest record, add to project list/ investor list\n            project.totalFunder += 1; //add a new funder\n            projectFunderList[projectId].push(_investorAddress);\n            investerFundedProjectList[_investorAddress].push(projectId);\n        }\n        // add fund amount\n        projectAddressFundAmount[projectId][_investorAddress] += amount;\n    }\n\n    function endProject(address _address, uint projectId, string memory dataURL)isProjectIdExist(projectId) external {\n        SLib.Project storage project = projectList[projectId - 1];\n        require(project.isOpen, \"Project fund rasing is closed\") ;\n        require(project.artistAddress == _address, \"Only project owner can close\") ;\n        project.isOpen = false;\n        project.dataURL = dataURL;\n    }\n\n    function checkIsAddressAbleToMint(uint projectId, address _address) isProjectIdExist(projectId) public view  returns (bool){\n        SLib.Project memory project = getProjectById(projectId);\n        uint fundAmount = projectAddressFundAmount[projectId][_address];\n        if(fundAmount <= 0){\n            return false;\n        }\n        if(project.isOpen){\n            return false;\n        }\n        if(projectShareNFTClaimed[projectId][_address]){\n            return false;\n        }\n        return true;\n    }\n\n    function getAddressShareInProject(uint projectId, address _address) isProjectIdExist(projectId) public view  returns (uint){\n        SLib.Project memory project = getProjectById(projectId);\n        uint fundAmount = projectAddressFundAmount[projectId][_address];\n        if(fundAmount <= 0){\n            return 0;\n        }\n        uint share = fundAmount / project.currentFundingAmount;\n        return share;\n    }\n\n    function setProjectShareNFTClaimed (uint projectId, address _address) isProjectIdExist(projectId) public {\n        require(checkIsAddressAbleToMint(projectId, _address), \"Address Not able to claim share NFT\");\n        projectShareNFTClaimed[projectId][_address] = true;\n    }\n\n    function getProjectFunderListByProjectId (uint projectId) isProjectIdExist(projectId) public view returns (address [] memory){\n        return projectFunderList[projectId];\n    }\n\n    function getFundedProjectByAddress (address _address)public view returns (uint [] memory){\n        return investerFundedProjectList[_address];\n    }\n\n    function getFundAmountsByProjectId (uint projectId)isProjectIdExist(projectId) public view returns (SLib.ProjectAddressFund [] memory) {\n        address [] memory funderList = projectFunderList[projectId];\n        SLib.ProjectAddressFund [] memory results = new SLib.ProjectAddressFund[](funderList.length);\n        for(uint i = 0; i < funderList.length; i++){\n            uint fundAmount = projectAddressFundAmount[projectId][ funderList[i] ];\n            results[i] = SLib.ProjectAddressFund({\n                funderAddress: funderList[i],\n                amount:fundAmount\n            });\n        }\n        return results;\n    }\n\n    function getAllProjects ()public view returns (SLib.Project [] memory){\n        return projectList;\n    }\n\n    function checkIsProjectExist(uint id) public view returns (bool) {\n        return projectExist[id];\n    }\n\n    function getProjectSize() public view returns (uint) {\n        return projectCount;\n    }\n\n    function getProjectById(uint id) isProjectIdExist(id) public view returns (SLib.Project memory project){\n        return projectList[id - 1];\n    }\n}\n\n\ncontract MainGame is Ownable{\n\n    ArtProjects artProjects;\n    ArtistMembers artistMembers;\n    PlatformToken platformToken;\n    FundRasingShareToken fundRasingShareToken;\n\n    constructor(address tokenAddress, address _artProjectsAddress, address _artistMembersAddress, address _fundRasingShareTokenAddress){\n        artProjects = ArtProjects(_artProjectsAddress);\n        artistMembers = ArtistMembers(_artistMembersAddress);\n        platformToken = PlatformToken(tokenAddress);\n        fundRasingShareToken = FundRasingShareToken(_fundRasingShareTokenAddress);\n    }\n\n    function registerAsArtist(string memory _name, string memory _iconURL) public {\n        artistMembers.addArtist(msg.sender, _name, _iconURL);\n        // address _address, string memory _name, string memory _iconURL\n    }\n\n    function kickStartProject(string memory _name, string memory _description, uint _targetFundingAmount) public{\n        require(artistMembers.checkIsArtistExist(msg.sender));\n        // address _artistAddress, string memory _name, string memory _description, uint _targetFundingAmount\n        artProjects.addProject(msg.sender, _name, _description, _targetFundingAmount);\n    }\n\n    function addFundToProject (uint projectId, uint amount) public {\n        artProjects.addFunderAmount(projectId, msg.sender, amount);\n        // address sender,\n        // address recipient,\n        // uint256 amount\n        platformToken.transferFrom (msg.sender, address(this), amount);\n    }\n\n    function endProject (uint projectId, string memory dataURL) public {\n        artProjects.endProject(msg.sender, projectId, dataURL);\n    }\n\n    function claimProjectShareNFT(uint projectId) public{\n        artProjects.setProjectShareNFTClaimed(projectId, msg.sender);\n        uint share = artProjects.getAddressShareInProject(projectId, msg.sender);\n        fundRasingShareToken.safeMintProjectShareNFT(msg.sender, projectId, share);\n    }\n\n\n}\n",
  "sourcePath": "/home/jacky/project/hackathon/contracts/artProject.sol",
  "compiler": {
    "name": "solc",
    "version": "0.8.5+commit.a4f2e591.Emscripten.clang"
  },
  "schemaVersion": "3.1.0",
  "updatedAt": "2022-01-15T19:06:50.833Z",
  "networkType": "ethereum",
  "devdoc": {
    "kind": "dev",
    "methods": {
      "owner()": {
        "details": "Returns the address of the current owner."
      },
      "renounceOwnership()": {
        "details": "Leaves the contract without owner. It will not be possible to call `onlyOwner` functions anymore. Can only be called by the current owner. NOTE: Renouncing ownership will leave the contract without an owner, thereby removing any functionality that is only available to the owner."
      },
      "transferOwnership(address)": {
        "details": "Transfers ownership of the contract to a new account (`newOwner`). Can only be called by the current owner."
      }
    },
    "version": 1
  },
  "userdoc": {
    "kind": "user",
    "methods": {},
    "version": 1
  }
}