{
  "contractName": "ArtProjects",
  "abi": [
    {
      "inputs": [],
      "stateMutability": "nonpayable",
      "type": "constructor"
    },
    {
      "anonymous": false,
      "inputs": [
        {
          "indexed": true,
          "internalType": "address",
          "name": "previousOwner",
          "type": "address"
        },
        {
          "indexed": true,
          "internalType": "address",
          "name": "newOwner",
          "type": "address"
        }
      ],
      "name": "OwnershipTransferred",
      "type": "event"
    },
    {
      "inputs": [],
      "name": "owner",
      "outputs": [
        {
          "internalType": "address",
          "name": "",
          "type": "address"
        }
      ],
      "stateMutability": "view",
      "type": "function",
      "constant": true
    },
    {
      "inputs": [],
      "name": "renounceOwnership",
      "outputs": [],
      "stateMutability": "nonpayable",
      "type": "function"
    },
    {
      "inputs": [
        {
          "internalType": "address",
          "name": "newOwner",
          "type": "address"
        }
      ],
      "name": "transferOwnership",
      "outputs": [],
      "stateMutability": "nonpayable",
      "type": "function"
    },
    {
      "inputs": [
        {
          "internalType": "address",
          "name": "_artistAddress",
          "type": "address"
        },
        {
          "internalType": "string",
          "name": "_name",
          "type": "string"
        },
        {
          "internalType": "string",
          "name": "_description",
          "type": "string"
        },
        {
          "internalType": "uint256",
          "name": "_targetFundingAmount",
          "type": "uint256"
        }
      ],
      "name": "addProject",
      "outputs": [],
      "stateMutability": "nonpayable",
      "type": "function"
    },
    {
      "inputs": [
        {
          "internalType": "uint256",
          "name": "projectId",
          "type": "uint256"
        },
        {
          "internalType": "address",
          "name": "_investorAddress",
          "type": "address"
        },
        {
          "internalType": "uint256",
          "name": "amount",
          "type": "uint256"
        }
      ],
      "name": "addFunderAmount",
      "outputs": [],
      "stateMutability": "nonpayable",
      "type": "function"
    },
    {
      "inputs": [
        {
          "internalType": "address",
          "name": "_address",
          "type": "address"
        },
        {
          "internalType": "uint256",
          "name": "projectId",
          "type": "uint256"
        },
        {
          "internalType": "string",
          "name": "dataURL",
          "type": "string"
        }
      ],
      "name": "endProject",
      "outputs": [],
      "stateMutability": "nonpayable",
      "type": "function"
    },
    {
      "inputs": [
        {
          "internalType": "uint256",
          "name": "projectId",
          "type": "uint256"
        },
        {
          "internalType": "address",
          "name": "_address",
          "type": "address"
        }
      ],
      "name": "checkIsAddressAbleToMint",
      "outputs": [
        {
          "internalType": "bool",
          "name": "",
          "type": "bool"
        }
      ],
      "stateMutability": "view",
      "type": "function",
      "constant": true
    },
    {
      "inputs": [
        {
          "internalType": "uint256",
          "name": "projectId",
          "type": "uint256"
        },
        {
          "internalType": "address",
          "name": "_address",
          "type": "address"
        }
      ],
      "name": "getAddressShareInProject",
      "outputs": [
        {
          "internalType": "uint256",
          "name": "",
          "type": "uint256"
        }
      ],
      "stateMutability": "view",
      "type": "function",
      "constant": true
    },
    {
      "inputs": [
        {
          "internalType": "uint256",
          "name": "projectId",
          "type": "uint256"
        },
        {
          "internalType": "address",
          "name": "_address",
          "type": "address"
        }
      ],
      "name": "setProjectShareNFTClaimed",
      "outputs": [],
      "stateMutability": "nonpayable",
      "type": "function"
    },
    {
      "inputs": [
        {
          "internalType": "uint256",
          "name": "projectId",
          "type": "uint256"
        }
      ],
      "name": "getProjectFunderListByProjectId",
      "outputs": [
        {
          "internalType": "address[]",
          "name": "",
          "type": "address[]"
        }
      ],
      "stateMutability": "view",
      "type": "function",
      "constant": true
    },
    {
      "inputs": [
        {
          "internalType": "address",
          "name": "_address",
          "type": "address"
        }
      ],
      "name": "getFundedProjectByAddress",
      "outputs": [
        {
          "internalType": "uint256[]",
          "name": "",
          "type": "uint256[]"
        }
      ],
      "stateMutability": "view",
      "type": "function",
      "constant": true
    },
    {
      "inputs": [
        {
          "internalType": "uint256",
          "name": "projectId",
          "type": "uint256"
        }
      ],
      "name": "getFundAmountsByProjectId",
      "outputs": [
        {
          "components": [
            {
              "internalType": "address",
              "name": "funderAddress",
              "type": "address"
            },
            {
              "internalType": "uint256",
              "name": "amount",
              "type": "uint256"
            }
          ],
          "internalType": "struct SLib.ProjectAddressFund[]",
          "name": "",
          "type": "tuple[]"
        }
      ],
      "stateMutability": "view",
      "type": "function",
      "constant": true
    },
    {
      "inputs": [],
      "name": "getAllProjects",
      "outputs": [
        {
          "components": [
            {
              "internalType": "uint256",
              "name": "id",
              "type": "uint256"
            },
            {
              "internalType": "address",
              "name": "artistAddress",
              "type": "address"
            },
            {
              "internalType": "string",
              "name": "name",
              "type": "string"
            },
            {
              "internalType": "string",
              "name": "description",
              "type": "string"
            },
            {
              "internalType": "uint256",
              "name": "targetFundingAmount",
              "type": "uint256"
            },
            {
              "internalType": "uint256",
              "name": "currentFundingAmount",
              "type": "uint256"
            },
            {
              "internalType": "uint256",
              "name": "totalFunder",
              "type": "uint256"
            },
            {
              "internalType": "bool",
              "name": "isOpen",
              "type": "bool"
            },
            {
              "internalType": "string",
              "name": "dataURL",
              "type": "string"
            }
          ],
          "internalType": "struct SLib.Project[]",
          "name": "",
          "type": "tuple[]"
        }
      ],
      "stateMutability": "view",
      "type": "function",
      "constant": true
    },
    {
      "inputs": [
        {
          "internalType": "uint256",
          "name": "id",
          "type": "uint256"
        }
      ],
      "name": "checkIsProjectExist",
      "outputs": [
        {
          "internalType": "bool",
          "name": "",
          "type": "bool"
        }
      ],
      "stateMutability": "view",
      "type": "function",
      "constant": true
    },
    {
      "inputs": [],
      "name": "getProjectSize",
      "outputs": [
        {
          "internalType": "uint256",
          "name": "",
          "type": "uint256"
        }
      ],
      "stateMutability": "view",
      "type": "function",
      "constant": true
    },
    {
      "inputs": [
        {
          "internalType": "uint256",
          "name": "id",
          "type": "uint256"
        }
      ],
      "name": "getProjectById",
      "outputs": [
        {
          "components": [
            {
              "internalType": "uint256",
              "name": "id",
              "type": "uint256"
            },
            {
              "internalType": "address",
              "name": "artistAddress",
              "type": "address"
            },
            {
              "internalType": "string",
              "name": "name",
              "type": "string"
            },
            {
              "internalType": "string",
              "name": "description",
              "type": "string"
            },
            {
              "internalType": "uint256",
              "name": "targetFundingAmount",
              "type": "uint256"
            },
            {
              "internalType": "uint256",
              "name": "currentFundingAmount",
              "type": "uint256"
            },
            {
              "internalType": "uint256",
              "name": "totalFunder",
              "type": "uint256"
            },
            {
              "internalType": "bool",
              "name": "isOpen",
              "type": "bool"
            },
            {
              "internalType": "string",
              "name": "dataURL",
              "type": "string"
            }
          ],
          "internalType": "struct SLib.Project",
          "name": "project",
          "type": "tuple"
        }
      ],
      "stateMutability": "view",
      "type": "function",
      "constant": true
    }
  ],
  "bytecode": "0x608060405260006003553480156200001657600080fd5b50620000376200002b6200003d60201b60201c565b6200004560201b60201c565b62000109565b600033905090565b60008060009054906101000a900473ffffffffffffffffffffffffffffffffffffffff169050816000806101000a81548173ffffffffffffffffffffffffffffffffffffffff021916908373ffffffffffffffffffffffffffffffffffffffff1602179055508173ffffffffffffffffffffffffffffffffffffffff168173ffffffffffffffffffffffffffffffffffffffff167f8be0079c531659141344cd1fd0a4f28419497f9722a3daafe3b4186f6b6457e060405160405180910390a35050565b612a1380620001196000396000f3fe608060405234801561001057600080fd5b50600436106100fe5760003560e01c80639fd95ea211610097578063bee5cdca11610066578063bee5cdca146102ab578063c3682fae146102db578063ca1a39191461030b578063f2fde38b14610327576100fe565b80639fd95ea214610213578063b06ef1b614610243578063b2c7430d1461025f578063b6c73af01461027b576100fe565b8063715018a6116100d3578063715018a61461019d57806380d03829146101a75780638da5cb5b146101c55780639ef584bd146101e3576100fe565b8062444e0c14610103578062691158146101215780630e0c7859146101515780633cc6456514610181575b600080fd5b61010b610343565b60405161011891906123c4565b60405180910390f35b61013b60048036038101906101369190611c3f565b61034d565b604051610148919061223f565b60405180910390f35b61016b60048036038101906101669190611c6c565b610441565b60405161017891906123c4565b60405180910390f35b61019b60048036038101906101969190611cac565b61052c565b005b6101a56107da565b005b6101af610862565b6040516101bc9190612283565b60405180910390f35b6101cd610b11565b6040516101da9190612224565b60405180910390f35b6101fd60048036038101906101f89190611c3f565b610b3a565b60405161020a91906122c7565b60405180910390f35b61022d60048036038101906102289190611c3f565b610b64565b60405161023a9190612261565b60405180910390f35b61025d60048036038101906102589190611b31565b610dab565b005b61027960048036038101906102749190611c6c565b610fe6565b005b61029560048036038101906102909190611b04565b6110ef565b6040516102a291906122a5565b60405180910390f35b6102c560048036038101906102c09190611c3f565b611186565b6040516102d291906123a2565b60405180910390f35b6102f560048036038101906102f09190611c6c565b611471565b60405161030291906122c7565b60405180910390f35b61032560048036038101906103209190611bd0565b6115cb565b005b610341600480360381019061033c9190611b04565b61176f565b005b6000600354905090565b60608160008111801561036257506003548111155b6103a1576040517f08c379a000000000000000000000000000000000000000000000000000000000815260040161039890612322565b60405180910390fd5b6006600084815260200190815260200160002080548060200260200160405190810160405280929190818152602001828054801561043457602002820191906000526020600020905b8160009054906101000a900473ffffffffffffffffffffffffffffffffffffffff1673ffffffffffffffffffffffffffffffffffffffff16815260200190600101908083116103ea575b5050505050915050919050565b60008260008111801561045657506003548111155b610495576040517f08c379a000000000000000000000000000000000000000000000000000000000815260040161048c90612322565b60405180910390fd5b60006104a085611186565b905060006005600087815260200190815260200160002060008673ffffffffffffffffffffffffffffffffffffffff1673ffffffffffffffffffffffffffffffffffffffff1681526020019081526020016000205490506000811161050a57600093505050610525565b60008260a001518261051c919061259c565b90508094505050505b5092915050565b8260008111801561053f57506003548111155b61057e576040517f08c379a000000000000000000000000000000000000000000000000000000000815260040161057590612322565b60405180910390fd5b6000600260018661058f91906125cd565b815481106105a05761059f6127c4565b5b906000526020600020906009020190508060070160009054906101000a900460ff16610601576040517f08c379a00000000000000000000000000000000000000000000000000000000081526004016105f890612342565b60405180910390fd5b828160050160008282546106159190612546565b9250508190555060006005600087815260200190815260200160002060008673ffffffffffffffffffffffffffffffffffffffff1673ffffffffffffffffffffffffffffffffffffffff16815260200190815260200160002054141561076c57600181600601600082825461068a9190612546565b9250508190555060066000868152602001908152602001600020849080600181540180825580915050600190039060005260206000200160009091909190916101000a81548173ffffffffffffffffffffffffffffffffffffffff021916908373ffffffffffffffffffffffffffffffffffffffff160217905550600760008573ffffffffffffffffffffffffffffffffffffffff1673ffffffffffffffffffffffffffffffffffffffff1681526020019081526020016000208590806001815401808255809150506001900390600052602060002001600090919091909150555b826005600087815260200190815260200160002060008673ffffffffffffffffffffffffffffffffffffffff1673ffffffffffffffffffffffffffffffffffffffff16815260200190815260200160002060008282546107cc9190612546565b925050819055505050505050565b6107e2611867565b73ffffffffffffffffffffffffffffffffffffffff16610800610b11565b73ffffffffffffffffffffffffffffffffffffffff1614610856576040517f08c379a000000000000000000000000000000000000000000000000000000000815260040161084d90612362565b60405180910390fd5b610860600061186f565b565b60606002805480602002602001604051908101604052809291908181526020016000905b82821015610b08578382906000526020600020906009020160405180610120016040529081600082015481526020016001820160009054906101000a900473ffffffffffffffffffffffffffffffffffffffff1673ffffffffffffffffffffffffffffffffffffffff1673ffffffffffffffffffffffffffffffffffffffff16815260200160028201805461091a9061268b565b80601f01602080910402602001604051908101604052809291908181526020018280546109469061268b565b80156109935780601f1061096857610100808354040283529160200191610993565b820191906000526020600020905b81548152906001019060200180831161097657829003601f168201915b505050505081526020016003820180546109ac9061268b565b80601f01602080910402602001604051908101604052809291908181526020018280546109d89061268b565b8015610a255780601f106109fa57610100808354040283529160200191610a25565b820191906000526020600020905b815481529060010190602001808311610a0857829003601f168201915b505050505081526020016004820154815260200160058201548152602001600682015481526020016007820160009054906101000a900460ff16151515158152602001600882018054610a779061268b565b80601f0160208091040260200160405190810160405280929190818152602001828054610aa39061268b565b8015610af05780601f10610ac557610100808354040283529160200191610af0565b820191906000526020600020905b815481529060010190602001808311610ad357829003601f168201915b50505050508152505081526020019060010190610886565b50505050905090565b60008060009054906101000a900473ffffffffffffffffffffffffffffffffffffffff16905090565b60006001600083815260200190815260200160002060009054906101000a900460ff169050919050565b606081600081118015610b7957506003548111155b610bb8576040517f08c379a0000000000000000000000000000000000000000000000000000000008152600401610baf90612322565b60405180910390fd5b600060066000858152602001908152602001600020805480602002602001604051908101604052809291908181526020018280548015610c4d57602002820191906000526020600020905b8160009054906101000a900473ffffffffffffffffffffffffffffffffffffffff1673ffffffffffffffffffffffffffffffffffffffff1681526020019060010190808311610c03575b505050505090506000815167ffffffffffffffff811115610c7157610c706127f3565b5b604051908082528060200260200182016040528015610caa57816020015b610c97611933565b815260200190600190039081610c8f5790505b50905060005b8251811015610d9f576000600560008881526020019081526020016000206000858481518110610ce357610ce26127c4565b5b602002602001015173ffffffffffffffffffffffffffffffffffffffff1673ffffffffffffffffffffffffffffffffffffffff1681526020019081526020016000205490506040518060400160405280858481518110610d4657610d456127c4565b5b602002602001015173ffffffffffffffffffffffffffffffffffffffff16815260200182815250838381518110610d8057610d7f6127c4565b5b6020026020010181905250508080610d97906126ee565b915050610cb0565b50809350505050919050565b60036000815480929190610dbe906126ee565b9190505550600060405180610120016040528060035481526020018673ffffffffffffffffffffffffffffffffffffffff168152602001858152602001848152602001838152602001600081526020016000815260200160011515815260200160405180602001604052806000815250815250905060028190806001815401808255809150506001900390600052602060002090600902016000909190919091506000820151816000015560208201518160010160006101000a81548173ffffffffffffffffffffffffffffffffffffffff021916908373ffffffffffffffffffffffffffffffffffffffff1602179055506040820151816002019080519060200190610ecc929190611963565b506060820151816003019080519060200190610ee9929190611963565b506080820151816004015560a0820151816005015560c0820151816006015560e08201518160070160006101000a81548160ff021916908315150217905550610100820151816008019080519060200190610f45929190611963565b505050600460008673ffffffffffffffffffffffffffffffffffffffff1673ffffffffffffffffffffffffffffffffffffffff168152602001908152602001600020816000015190806001815401808255809150506001900390600052602060002001600090919091909150556001806000600354815260200190815260200160002060006101000a81548160ff0219169083151502179055505050505050565b81600081118015610ff957506003548111155b611038576040517f08c379a000000000000000000000000000000000000000000000000000000000815260040161102f90612322565b60405180910390fd5b6110428383611471565b611081576040517f08c379a0000000000000000000000000000000000000000000000000000000008152600401611078906122e2565b60405180910390fd5b60016008600085815260200190815260200160002060008473ffffffffffffffffffffffffffffffffffffffff1673ffffffffffffffffffffffffffffffffffffffff16815260200190815260200160002060006101000a81548160ff021916908315150217905550505050565b6060600760008373ffffffffffffffffffffffffffffffffffffffff1673ffffffffffffffffffffffffffffffffffffffff16815260200190815260200160002080548060200260200160405190810160405280929190818152602001828054801561117a57602002820191906000526020600020905b815481526020019060010190808311611166575b50505050509050919050565b61118e6119e9565b816000811180156111a157506003548111155b6111e0576040517f08c379a00000000000000000000000000000000000000000000000000000000081526004016111d790612322565b60405180910390fd5b60026001846111ef91906125cd565b81548110611200576111ff6127c4565b5b906000526020600020906009020160405180610120016040529081600082015481526020016001820160009054906101000a900473ffffffffffffffffffffffffffffffffffffffff1673ffffffffffffffffffffffffffffffffffffffff1673ffffffffffffffffffffffffffffffffffffffff16815260200160028201805461128a9061268b565b80601f01602080910402602001604051908101604052809291908181526020018280546112b69061268b565b80156113035780601f106112d857610100808354040283529160200191611303565b820191906000526020600020905b8154815290600101906020018083116112e657829003601f168201915b5050505050815260200160038201805461131c9061268b565b80601f01602080910402602001604051908101604052809291908181526020018280546113489061268b565b80156113955780601f1061136a57610100808354040283529160200191611395565b820191906000526020600020905b81548152906001019060200180831161137857829003601f168201915b505050505081526020016004820154815260200160058201548152602001600682015481526020016007820160009054906101000a900460ff161515151581526020016008820180546113e79061268b565b80601f01602080910402602001604051908101604052809291908181526020018280546114139061268b565b80156114605780601f1061143557610100808354040283529160200191611460565b820191906000526020600020905b81548152906001019060200180831161144357829003601f168201915b505050505081525050915050919050565b60008260008111801561148657506003548111155b6114c5576040517f08c379a00000000000000000000000000000000000000000000000000000000081526004016114bc90612322565b60405180910390fd5b60006114d085611186565b905060006005600087815260200190815260200160002060008673ffffffffffffffffffffffffffffffffffffffff1673ffffffffffffffffffffffffffffffffffffffff1681526020019081526020016000205490506000811161153a576000935050506115c4565b8160e001511561154f576000935050506115c4565b6008600087815260200190815260200160002060008673ffffffffffffffffffffffffffffffffffffffff1673ffffffffffffffffffffffffffffffffffffffff16815260200190815260200160002060009054906101000a900460ff16156115bd576000935050506115c4565b6001935050505b5092915050565b816000811180156115de57506003548111155b61161d576040517f08c379a000000000000000000000000000000000000000000000000000000000815260040161161490612322565b60405180910390fd5b6000600260018561162e91906125cd565b8154811061163f5761163e6127c4565b5b906000526020600020906009020190508060070160009054906101000a900460ff166116a0576040517f08c379a000000000000000000000000000000000000000000000000000000000815260040161169790612342565b60405180910390fd5b8473ffffffffffffffffffffffffffffffffffffffff168160010160009054906101000a900473ffffffffffffffffffffffffffffffffffffffff1673ffffffffffffffffffffffffffffffffffffffff1614611732576040517f08c379a000000000000000000000000000000000000000000000000000000000815260040161172990612382565b60405180910390fd5b60008160070160006101000a81548160ff02191690831515021790555082816008019080519060200190611767929190611963565b505050505050565b611777611867565b73ffffffffffffffffffffffffffffffffffffffff16611795610b11565b73ffffffffffffffffffffffffffffffffffffffff16146117eb576040517f08c379a00000000000000000000000000000000000000000000000000000000081526004016117e290612362565b60405180910390fd5b600073ffffffffffffffffffffffffffffffffffffffff168173ffffffffffffffffffffffffffffffffffffffff16141561185b576040517f08c379a000000000000000000000000000000000000000000000000000000000815260040161185290612302565b60405180910390fd5b6118648161186f565b50565b600033905090565b60008060009054906101000a900473ffffffffffffffffffffffffffffffffffffffff169050816000806101000a81548173ffffffffffffffffffffffffffffffffffffffff021916908373ffffffffffffffffffffffffffffffffffffffff1602179055508173ffffffffffffffffffffffffffffffffffffffff168173ffffffffffffffffffffffffffffffffffffffff167f8be0079c531659141344cd1fd0a4f28419497f9722a3daafe3b4186f6b6457e060405160405180910390a35050565b6040518060400160405280600073ffffffffffffffffffffffffffffffffffffffff168152602001600081525090565b82805461196f9061268b565b90600052602060002090601f01602090048101928261199157600085556119d8565b82601f106119aa57805160ff19168380011785556119d8565b828001600101855582156119d8579182015b828111156119d75782518255916020019190600101906119bc565b5b5090506119e59190611a4d565b5090565b60405180610120016040528060008152602001600073ffffffffffffffffffffffffffffffffffffffff1681526020016060815260200160608152602001600081526020016000815260200160008152602001600015158152602001606081525090565b5b80821115611a66576000816000905550600101611a4e565b5090565b6000611a7d611a7884612404565b6123df565b905082815260208101848484011115611a9957611a98612827565b5b611aa4848285612649565b509392505050565b600081359050611abb816129af565b92915050565b600082601f830112611ad657611ad5612822565b5b8135611ae6848260208601611a6a565b91505092915050565b600081359050611afe816129c6565b92915050565b600060208284031215611b1a57611b19612831565b5b6000611b2884828501611aac565b91505092915050565b60008060008060808587031215611b4b57611b4a612831565b5b6000611b5987828801611aac565b945050602085013567ffffffffffffffff811115611b7a57611b7961282c565b5b611b8687828801611ac1565b935050604085013567ffffffffffffffff811115611ba757611ba661282c565b5b611bb387828801611ac1565b9250506060611bc487828801611aef565b91505092959194509250565b600080600060608486031215611be957611be8612831565b5b6000611bf786828701611aac565b9350506020611c0886828701611aef565b925050604084013567ffffffffffffffff811115611c2957611c2861282c565b5b611c3586828701611ac1565b9150509250925092565b600060208284031215611c5557611c54612831565b5b6000611c6384828501611aef565b91505092915050565b60008060408385031215611c8357611c82612831565b5b6000611c9185828601611aef565b9250506020611ca285828601611aac565b9150509250929050565b600080600060608486031215611cc557611cc4612831565b5b6000611cd386828701611aef565b9350506020611ce486828701611aac565b9250506040611cf586828701611aef565b9150509250925092565b6000611d0b8383611d5b565b60208301905092915050565b6000611d238383612031565b60408301905092915050565b6000611d3b8383612060565b905092915050565b6000611d4f8383612206565b60208301905092915050565b611d6481612601565b82525050565b611d7381612601565b82525050565b6000611d8482612475565b611d8e81856124e0565b9350611d9983612435565b8060005b83811015611dca578151611db18882611cff565b9750611dbc836124ac565b925050600181019050611d9d565b5085935050505092915050565b6000611de282612480565b611dec81856124f1565b9350611df783612445565b8060005b83811015611e28578151611e0f8882611d17565b9750611e1a836124b9565b925050600181019050611dfb565b5085935050505092915050565b6000611e408261248b565b611e4a8185612502565b935083602082028501611e5c85612455565b8060005b85811015611e985784840389528151611e798582611d2f565b9450611e84836124c6565b925060208a01995050600181019050611e60565b50829750879550505050505092915050565b6000611eb582612496565b611ebf8185612513565b9350611eca83612465565b8060005b83811015611efb578151611ee28882611d43565b9750611eed836124d3565b925050600181019050611ece565b5085935050505092915050565b611f1181612613565b82525050565b611f2081612613565b82525050565b6000611f31826124a1565b611f3b8185612524565b9350611f4b818560208601612658565b611f5481612836565b840191505092915050565b6000611f6c602383612535565b9150611f7782612847565b604082019050919050565b6000611f8f602683612535565b9150611f9a82612896565b604082019050919050565b6000611fb2602683612535565b9150611fbd826128e5565b604082019050919050565b6000611fd5601d83612535565b9150611fe082612934565b602082019050919050565b6000611ff8602083612535565b91506120038261295d565b602082019050919050565b600061201b601c83612535565b915061202682612986565b602082019050919050565b6040820160008201516120476000850182611d5b565b50602082015161205a6020850182612206565b50505050565b6000610120830160008301516120796000860182612206565b50602083015161208c6020860182611d5b565b50604083015184820360408601526120a48282611f26565b915050606083015184820360608601526120be8282611f26565b91505060808301516120d36080860182612206565b5060a08301516120e660a0860182612206565b5060c08301516120f960c0860182612206565b5060e083015161210c60e0860182611f08565b506101008301518482036101008601526121268282611f26565b9150508091505092915050565b60006101208301600083015161214c6000860182612206565b50602083015161215f6020860182611d5b565b50604083015184820360408601526121778282611f26565b915050606083015184820360608601526121918282611f26565b91505060808301516121a66080860182612206565b5060a08301516121b960a0860182612206565b5060c08301516121cc60c0860182612206565b5060e08301516121df60e0860182611f08565b506101008301518482036101008601526121f98282611f26565b9150508091505092915050565b61220f8161263f565b82525050565b61221e8161263f565b82525050565b60006020820190506122396000830184611d6a565b92915050565b600060208201905081810360008301526122598184611d79565b905092915050565b6000602082019050818103600083015261227b8184611dd7565b905092915050565b6000602082019050818103600083015261229d8184611e35565b905092915050565b600060208201905081810360008301526122bf8184611eaa565b905092915050565b60006020820190506122dc6000830184611f17565b92915050565b600060208201905081810360008301526122fb81611f5f565b9050919050565b6000602082019050818103600083015261231b81611f82565b9050919050565b6000602082019050818103600083015261233b81611fa5565b9050919050565b6000602082019050818103600083015261235b81611fc8565b9050919050565b6000602082019050818103600083015261237b81611feb565b9050919050565b6000602082019050818103600083015261239b8161200e565b9050919050565b600060208201905081810360008301526123bc8184612133565b905092915050565b60006020820190506123d96000830184612215565b92915050565b60006123e96123fa565b90506123f582826126bd565b919050565b6000604051905090565b600067ffffffffffffffff82111561241f5761241e6127f3565b5b61242882612836565b9050602081019050919050565b6000819050602082019050919050565b6000819050602082019050919050565b6000819050602082019050919050565b6000819050602082019050919050565b600081519050919050565b600081519050919050565b600081519050919050565b600081519050919050565b600081519050919050565b6000602082019050919050565b6000602082019050919050565b6000602082019050919050565b6000602082019050919050565b600082825260208201905092915050565b600082825260208201905092915050565b600082825260208201905092915050565b600082825260208201905092915050565b600082825260208201905092915050565b600082825260208201905092915050565b60006125518261263f565b915061255c8361263f565b9250827fffffffffffffffffffffffffffffffffffffffffffffffffffffffffffffffff0382111561259157612590612737565b5b828201905092915050565b60006125a78261263f565b91506125b28361263f565b9250826125c2576125c1612766565b5b828204905092915050565b60006125d88261263f565b91506125e38361263f565b9250828210156125f6576125f5612737565b5b828203905092915050565b600061260c8261261f565b9050919050565b60008115159050919050565b600073ffffffffffffffffffffffffffffffffffffffff82169050919050565b6000819050919050565b82818337600083830152505050565b60005b8381101561267657808201518184015260208101905061265b565b83811115612685576000848401525b50505050565b600060028204905060018216806126a357607f821691505b602082108114156126b7576126b6612795565b5b50919050565b6126c682612836565b810181811067ffffffffffffffff821117156126e5576126e46127f3565b5b80604052505050565b60006126f98261263f565b91507fffffffffffffffffffffffffffffffffffffffffffffffffffffffffffffffff82141561272c5761272b612737565b5b600182019050919050565b7f4e487b7100000000000000000000000000000000000000000000000000000000600052601160045260246000fd5b7f4e487b7100000000000000000000000000000000000000000000000000000000600052601260045260246000fd5b7f4e487b7100000000000000000000000000000000000000000000000000000000600052602260045260246000fd5b7f4e487b7100000000000000000000000000000000000000000000000000000000600052603260045260246000fd5b7f4e487b7100000000000000000000000000000000000000000000000000000000600052604160045260246000fd5b600080fd5b600080fd5b600080fd5b600080fd5b6000601f19601f8301169050919050565b7f41646472657373204e6f742061626c6520746f20636c61696d2073686172652060008201527f4e46540000000000000000000000000000000000000000000000000000000000602082015250565b7f4f776e61626c653a206e6577206f776e657220697320746865207a65726f206160008201527f6464726573730000000000000000000000000000000000000000000000000000602082015250565b7f70726f6a656374204964206d757374206c657373207468616e2070726f6a656360008201527f74436f756e740000000000000000000000000000000000000000000000000000602082015250565b7f50726f6a6563742066756e6420726173696e6720697320636c6f736564000000600082015250565b7f4f776e61626c653a2063616c6c6572206973206e6f7420746865206f776e6572600082015250565b7f4f6e6c792070726f6a656374206f776e65722063616e20636c6f736500000000600082015250565b6129b881612601565b81146129c357600080fd5b50565b6129cf8161263f565b81146129da57600080fd5b5056fea264697066735822122001a90af1110d997e298d2675388a9ce0f1cd7f934bc2be8bfec05b7e5b7f674e64736f6c63430008050033",
  "immutableReferences": {},
  "source": "// SPDX-License-Identifier: UNLICENSED\n\npragma solidity ^0.8.5;\nimport \"@openzeppelin/contracts/token/ERC20/ERC20.sol\";\nimport \"@openzeppelin/contracts/access/Ownable.sol\";\nimport \"./slib.sol\";\nimport \"./fundRasingShareToken.sol\";\nimport \"./platformToken.sol\";\n\ncontract ArtistMembers is Ownable{\n\n    mapping(address => bool) private artistExist; //check projectId return bool\n    mapping(address => uint) private artistIdIndex; //check projectId return bool\n    SLib.Artist[] private artistList;\n    uint private artistCount;\n\n    modifier isArtistIdExist(uint id) {\n        require(id > 0 && id <= artistCount, \"artist Id must less than artistCount\");\n        _;\n    }\n\n    modifier isArtistAddressExist(address _address) {\n        require(artistExist[_address], \"artist Id must less than artistCount\");\n        _;\n    }\n\n    event ArtistAdd(address indexed artistAddress);\n\n    constructor (){\n        artistCount = 0;\n    }\n\n    function addArtist (address _address, string memory _name, string memory _iconURL) external  returns (SLib.Artist memory artist){\n        require(!artistExist[_address], \"Caller is artist already\");\n        artistCount ++;\n        artistExist[_address] = true;\n        SLib.Artist memory newArtist = SLib.Artist({\n            id:artistCount,\n            artistAddress:_address,\n            name:_name,\n            iconURL:_iconURL\n        });\n        artistList.push(newArtist);\n        artistIdIndex[_address] = artistCount - 1;\n\n        // omit event\n\n        return newArtist;\n    }\n\n    function checkIsArtistExist(address _address) public view returns (bool) {\n        return artistExist[_address];\n    }\n\n    function getArtistSize() public view returns (uint) {\n        return artistCount;\n    }\n\n    function getArtistById(uint id) isArtistIdExist(id) public view returns (SLib.Artist memory artist){\n        return artistList[id - 1];\n    }\n\n    function getArtistByAddress(address _address) isArtistAddressExist(_address) public view returns (SLib.Artist memory artist){\n        uint artistIndex = artistIdIndex[_address];\n        return artistList[artistIndex];\n    }\n}\n\n\n\ncontract ArtProjects is Ownable{\n\n    mapping(uint => bool) private projectExist; //check projectId return bool\n    SLib.Project[] private projectList;\n    uint private projectCount = 0;\n    mapping(address => uint[]) artistProjectList;\n\n    // projectId -> investor address -> invest amount\n    mapping(uint => mapping(address => uint)) projectAddressFundAmount;\n    mapping(uint => address[] ) projectFunderList;\n    mapping(address => uint[]) investerFundedProjectList;\n    mapping(uint => mapping(address => bool)) projectShareNFTClaimed;\n\n    modifier isProjectIdExist(uint id) {\n        require(id > 0 && id <= projectCount, \"project Id must less than projectCount\");\n        _;\n    }\n\n    constructor(){\n\n    }\n\n    function addProject(address _artistAddress, string memory _name, string memory _description, uint _targetFundingAmount) external {\n        \n        projectCount ++;\n        SLib.Project memory newProject = SLib.Project({\n            id:projectCount,\n            artistAddress: _artistAddress,\n            name:_name,\n            description:_description,\n            targetFundingAmount:_targetFundingAmount,\n            currentFundingAmount: 0,\n            totalFunder:0,\n            isOpen:true,\n            dataURL:\"\"\n        });\n        projectList.push(newProject);\n        artistProjectList[_artistAddress].push(newProject.id);\n        projectExist[projectCount] = true;\n    }\n\n    function addFunderAmount(uint projectId, address _investorAddress, uint amount) isProjectIdExist(projectId) external {\n        SLib.Project storage project = projectList[projectId - 1];\n\n        // block if not open\n        require(project.isOpen, \"Project fund rasing is closed\") ;\n\n        project.currentFundingAmount += amount;\n\n        // add new investor record\n        if(projectAddressFundAmount[projectId][_investorAddress] == 0){\n            // if no invest record, add to project list/ investor list\n            project.totalFunder += 1; //add a new funder\n            projectFunderList[projectId].push(_investorAddress);\n            investerFundedProjectList[_investorAddress].push(projectId);\n        }\n        // add fund amount\n        projectAddressFundAmount[projectId][_investorAddress] += amount;\n    }\n\n    function endProject(address _address, uint projectId, string memory dataURL)isProjectIdExist(projectId) external {\n        SLib.Project storage project = projectList[projectId - 1];\n        require(project.isOpen, \"Project fund rasing is closed\") ;\n        require(project.artistAddress == _address, \"Only project owner can close\") ;\n        project.isOpen = false;\n        project.dataURL = dataURL;\n    }\n\n    function checkIsAddressAbleToMint(uint projectId, address _address) isProjectIdExist(projectId) public view  returns (bool){\n        SLib.Project memory project = getProjectById(projectId);\n        uint fundAmount = projectAddressFundAmount[projectId][_address];\n        if(fundAmount <= 0){\n            return false;\n        }\n        if(project.isOpen){\n            return false;\n        }\n        if(projectShareNFTClaimed[projectId][_address]){\n            return false;\n        }\n        return true;\n    }\n\n    function getAddressShareInProject(uint projectId, address _address) isProjectIdExist(projectId) public view  returns (uint){\n        SLib.Project memory project = getProjectById(projectId);\n        uint fundAmount = projectAddressFundAmount[projectId][_address];\n        if(fundAmount <= 0){\n            return 0;\n        }\n        uint share = fundAmount / project.currentFundingAmount;\n        return share;\n    }\n\n    function setProjectShareNFTClaimed (uint projectId, address _address) isProjectIdExist(projectId) public {\n        require(checkIsAddressAbleToMint(projectId, _address), \"Address Not able to claim share NFT\");\n        projectShareNFTClaimed[projectId][_address] = true;\n    }\n\n    function getProjectFunderListByProjectId (uint projectId) isProjectIdExist(projectId) public view returns (address [] memory){\n        return projectFunderList[projectId];\n    }\n\n    function getFundedProjectByAddress (address _address)public view returns (uint [] memory){\n        return investerFundedProjectList[_address];\n    }\n\n    function getFundAmountsByProjectId (uint projectId)isProjectIdExist(projectId) public view returns (SLib.ProjectAddressFund [] memory) {\n        address [] memory funderList = projectFunderList[projectId];\n        SLib.ProjectAddressFund [] memory results = new SLib.ProjectAddressFund[](funderList.length);\n        for(uint i = 0; i < funderList.length; i++){\n            uint fundAmount = projectAddressFundAmount[projectId][ funderList[i] ];\n            results[i] = SLib.ProjectAddressFund({\n                funderAddress: funderList[i],\n                amount:fundAmount\n            });\n        }\n        return results;\n    }\n\n    function getAllProjects ()public view returns (SLib.Project [] memory){\n        return projectList;\n    }\n\n    function checkIsProjectExist(uint id) public view returns (bool) {\n        return projectExist[id];\n    }\n\n    function getProjectSize() public view returns (uint) {\n        return projectCount;\n    }\n\n    function getProjectById(uint id) isProjectIdExist(id) public view returns (SLib.Project memory project){\n        return projectList[id - 1];\n    }\n}\n\n\ncontract MainGame is Ownable{\n\n    ArtProjects artProjects;\n    ArtistMembers artistMembers;\n    PlatformToken platformToken;\n    FundRasingShareToken fundRasingShareToken;\n\n    constructor(address tokenAddress, address _artProjectsAddress, address _artistMembersAddress, address _fundRasingShareTokenAddress){\n        artProjects = ArtProjects(_artProjectsAddress);\n        artistMembers = ArtistMembers(_artistMembersAddress);\n        platformToken = PlatformToken(tokenAddress);\n        fundRasingShareToken = FundRasingShareToken(_fundRasingShareTokenAddress);\n    }\n\n    function registerAsArtist(string memory _name, string memory _iconURL) public {\n        artistMembers.addArtist(msg.sender, _name, _iconURL);\n        // address _address, string memory _name, string memory _iconURL\n    }\n\n    function kickStartProject(string memory _name, string memory _description, uint _targetFundingAmount) public{\n        require(artistMembers.checkIsArtistExist(msg.sender));\n        // address _artistAddress, string memory _name, string memory _description, uint _targetFundingAmount\n        artProjects.addProject(msg.sender, _name, _description, _targetFundingAmount);\n    }\n\n    function addFundToProject (uint projectId, uint amount) public {\n        artProjects.addFunderAmount(projectId, msg.sender, amount);\n        // address sender,\n        // address recipient,\n        // uint256 amount\n        platformToken.transferFrom (msg.sender, address(this), amount);\n    }\n\n    function endProject (uint projectId, string memory dataURL) public {\n        artProjects.endProject(msg.sender, projectId, dataURL);\n    }\n\n    function claimProjectShareNFT(uint projectId) public{\n        artProjects.setProjectShareNFTClaimed(projectId, msg.sender);\n        uint share = artProjects.getAddressShareInProject(projectId, msg.sender);\n        fundRasingShareToken.safeMintProjectShareNFT(msg.sender, projectId, share);\n    }\n\n\n}\n",
  "sourcePath": "/home/jacky/project/hackathon/contracts/artProject.sol",
  "compiler": {
    "name": "solc",
    "version": "0.8.5+commit.a4f2e591.Emscripten.clang"
  },
  "schemaVersion": "3.1.0",
  "updatedAt": "2022-01-15T19:06:50.842Z",
  "networkType": "ethereum",
  "devdoc": {
    "kind": "dev",
    "methods": {
      "owner()": {
        "details": "Returns the address of the current owner."
      },
      "renounceOwnership()": {
        "details": "Leaves the contract without owner. It will not be possible to call `onlyOwner` functions anymore. Can only be called by the current owner. NOTE: Renouncing ownership will leave the contract without an owner, thereby removing any functionality that is only available to the owner."
      },
      "transferOwnership(address)": {
        "details": "Transfers ownership of the contract to a new account (`newOwner`). Can only be called by the current owner."
      }
    },
    "version": 1
  },
  "userdoc": {
    "kind": "user",
    "methods": {},
    "version": 1
  }
}